{
  "address": "0xde060555bDCa853cFBd5e49101033aF70327D2Ac",
  "abi": [
    {
      "inputs": [
        {
          "internalType": "address",
          "name": "_feeRecipient",
          "type": "address"
        },
        {
          "internalType": "uint256",
          "name": "_feePercent",
          "type": "uint256"
        }
      ],
      "stateMutability": "nonpayable",
      "type": "constructor"
    },
    {
      "inputs": [],
      "name": "ReentrancyGuardReentrantCall",
      "type": "error"
    },
    {
      "anonymous": false,
      "inputs": [
        {
          "indexed": true,
          "internalType": "address",
          "name": "nftContract",
          "type": "address"
        },
        {
          "indexed": true,
          "internalType": "uint256",
          "name": "tokenId",
          "type": "uint256"
        },
        {
          "indexed": false,
          "internalType": "uint256",
          "name": "endTime",
          "type": "uint256"
        },
        {
          "indexed": false,
          "internalType": "uint256",
          "name": "startingBid",
          "type": "uint256"
        }
      ],
      "name": "AuctionCreated",
      "type": "event"
    },
    {
      "anonymous": false,
      "inputs": [
        {
          "indexed": true,
          "internalType": "address",
          "name": "nftContract",
          "type": "address"
        },
        {
          "indexed": true,
          "internalType": "uint256",
          "name": "tokenId",
          "type": "uint256"
        },
        {
          "indexed": false,
          "internalType": "address",
          "name": "winner",
          "type": "address"
        },
        {
          "indexed": false,
          "internalType": "uint256",
          "name": "amount",
          "type": "uint256"
        }
      ],
      "name": "AuctionSettled",
      "type": "event"
    },
    {
      "anonymous": false,
      "inputs": [
        {
          "indexed": true,
          "internalType": "address",
          "name": "nftContract",
          "type": "address"
        },
        {
          "indexed": true,
          "internalType": "uint256",
          "name": "tokenId",
          "type": "uint256"
        },
        {
          "indexed": false,
          "internalType": "address",
          "name": "bidder",
          "type": "address"
        },
        {
          "indexed": false,
          "internalType": "uint256",
          "name": "amount",
          "type": "uint256"
        }
      ],
      "name": "BidPlaced",
      "type": "event"
    },
    {
      "inputs": [
        {
          "internalType": "uint256",
          "name": "",
          "type": "uint256"
        }
      ],
      "name": "auctionContracts",
      "outputs": [
        {
          "internalType": "address",
          "name": "",
          "type": "address"
        }
      ],
      "stateMutability": "view",
      "type": "function"
    },
    {
      "inputs": [
        {
          "internalType": "address",
          "name": "",
          "type": "address"
        },
        {
          "internalType": "uint256",
          "name": "",
          "type": "uint256"
        }
      ],
      "name": "auctionTokenIds",
      "outputs": [
        {
          "internalType": "uint256",
          "name": "",
          "type": "uint256"
        }
      ],
      "stateMutability": "view",
      "type": "function"
    },
    {
      "inputs": [
        {
          "internalType": "address",
          "name": "",
          "type": "address"
        },
        {
          "internalType": "uint256",
          "name": "",
          "type": "uint256"
        }
      ],
      "name": "auctions",
      "outputs": [
        {
          "internalType": "address",
          "name": "seller",
          "type": "address"
        },
        {
          "internalType": "address",
          "name": "highestBidder",
          "type": "address"
        },
        {
          "internalType": "uint256",
          "name": "highestBid",
          "type": "uint256"
        },
        {
          "internalType": "uint256",
          "name": "endTime",
          "type": "uint256"
        },
        {
          "internalType": "bool",
          "name": "settled",
          "type": "bool"
        },
        {
          "internalType": "address",
          "name": "nftContract",
          "type": "address"
        },
        {
          "internalType": "uint256",
          "name": "tokenId",
          "type": "uint256"
        }
      ],
      "stateMutability": "view",
      "type": "function"
    },
    {
      "inputs": [
        {
          "internalType": "address",
          "name": "nftContract",
          "type": "address"
        },
        {
          "internalType": "uint256",
          "name": "tokenId",
          "type": "uint256"
        },
        {
          "internalType": "uint256",
          "name": "startingBid",
          "type": "uint256"
        },
        {
          "internalType": "uint256",
          "name": "duration",
          "type": "uint256"
        }
      ],
      "name": "createAuction",
      "outputs": [],
      "stateMutability": "nonpayable",
      "type": "function"
    },
    {
      "inputs": [],
      "name": "feePercent",
      "outputs": [
        {
          "internalType": "uint256",
          "name": "",
          "type": "uint256"
        }
      ],
      "stateMutability": "view",
      "type": "function"
    },
    {
      "inputs": [],
      "name": "feeRecipient",
      "outputs": [
        {
          "internalType": "address",
          "name": "",
          "type": "address"
        }
      ],
      "stateMutability": "view",
      "type": "function"
    },
    {
      "inputs": [],
      "name": "getAllActiveAuctions",
      "outputs": [
        {
          "components": [
            {
              "internalType": "address",
              "name": "seller",
              "type": "address"
            },
            {
              "internalType": "address",
              "name": "highestBidder",
              "type": "address"
            },
            {
              "internalType": "uint256",
              "name": "highestBid",
              "type": "uint256"
            },
            {
              "internalType": "uint256",
              "name": "endTime",
              "type": "uint256"
            },
            {
              "internalType": "bool",
              "name": "settled",
              "type": "bool"
            },
            {
              "internalType": "address",
              "name": "nftContract",
              "type": "address"
            },
            {
              "internalType": "uint256",
              "name": "tokenId",
              "type": "uint256"
            }
          ],
          "internalType": "struct NFTAuction.Auction[]",
          "name": "activeAuctions",
          "type": "tuple[]"
        }
      ],
      "stateMutability": "view",
      "type": "function"
    },
    {
      "inputs": [],
      "name": "getAllAuctions",
      "outputs": [
        {
          "components": [
            {
              "internalType": "address",
              "name": "seller",
              "type": "address"
            },
            {
              "internalType": "address",
              "name": "highestBidder",
              "type": "address"
            },
            {
              "internalType": "uint256",
              "name": "highestBid",
              "type": "uint256"
            },
            {
              "internalType": "uint256",
              "name": "endTime",
              "type": "uint256"
            },
            {
              "internalType": "bool",
              "name": "settled",
              "type": "bool"
            },
            {
              "internalType": "address",
              "name": "nftContract",
              "type": "address"
            },
            {
              "internalType": "uint256",
              "name": "tokenId",
              "type": "uint256"
            }
          ],
          "internalType": "struct NFTAuction.Auction[]",
          "name": "allAuctions",
          "type": "tuple[]"
        }
      ],
      "stateMutability": "view",
      "type": "function"
    },
    {
      "inputs": [
        {
          "internalType": "address",
          "name": "nftContract",
          "type": "address"
        },
        {
          "internalType": "uint256",
          "name": "tokenId",
          "type": "uint256"
        }
      ],
      "name": "getAuction",
      "outputs": [
        {
          "components": [
            {
              "internalType": "address",
              "name": "seller",
              "type": "address"
            },
            {
              "internalType": "address",
              "name": "highestBidder",
              "type": "address"
            },
            {
              "internalType": "uint256",
              "name": "highestBid",
              "type": "uint256"
            },
            {
              "internalType": "uint256",
              "name": "endTime",
              "type": "uint256"
            },
            {
              "internalType": "bool",
              "name": "settled",
              "type": "bool"
            },
            {
              "internalType": "address",
              "name": "nftContract",
              "type": "address"
            },
            {
              "internalType": "uint256",
              "name": "tokenId",
              "type": "uint256"
            }
          ],
          "internalType": "struct NFTAuction.Auction",
          "name": "",
          "type": "tuple"
        }
      ],
      "stateMutability": "view",
      "type": "function"
    },
    {
      "inputs": [
        {
          "internalType": "address",
          "name": "nftContract",
          "type": "address"
        },
        {
          "internalType": "uint256",
          "name": "tokenId",
          "type": "uint256"
        }
      ],
      "name": "placeBid",
      "outputs": [],
      "stateMutability": "payable",
      "type": "function"
    },
    {
      "inputs": [
        {
          "internalType": "address",
          "name": "nftContract",
          "type": "address"
        },
        {
          "internalType": "uint256",
          "name": "tokenId",
          "type": "uint256"
        }
      ],
      "name": "settleAuction",
      "outputs": [],
      "stateMutability": "nonpayable",
      "type": "function"
    }
  ],
  "transactionHash": "0xa5367cc7f8199f755e8f29e7683d0f7891e9f23781e38464432a117b3aee7fb9",
  "args": [
    "0x3506F4f7102EC939EFdeD1a91664bb34184f0209",
    250
  ],
  "numDeployments": 1,
  "solcInputHash": "e5a68a4da0dd2a11275284babe21ecd0",
  "bytecode": "0x608060405234801561001057600080fd5b506040516118dd3803806118dd83398101604081905261002f9161005d565b6001600055600480546001600160a01b0319166001600160a01b039390931692909217909155600555610097565b6000806040838503121561007057600080fd5b82516001600160a01b038116811461008757600080fd5b6020939093015192949293505050565b611837806100a66000396000f3fe60806040526004361061009c5760003560e01c806361beb1d71161006457806361beb1d71461020d578063762a66a21461022d5780637fd6f15c1461025a578063a4ed878914610270578063cbd2bdfd14610290578063d98b9bb5146102a557600080fd5b80632dee466d146100a15780632ebc76e7146100cc57806344f91c1e146100fa57806346904840146101b35780635138b08c146101eb575b600080fd5b3480156100ad57600080fd5b506100b66102b8565b6040516100c39190611619565b60405180910390f35b3480156100d857600080fd5b506100ec6100e736600461167f565b61055a565b6040519081526020016100c3565b34801561010657600080fd5b5061016d61011536600461167f565b600160208181526000938452604080852090915291835291208054918101546002820154600383015460048401546005909401546001600160a01b0395861695938416949293919260ff811692610100909104169087565b604080516001600160a01b039889168152968816602088015286019490945260608501929092521515608084015290921660a082015260c081019190915260e0016100c3565b3480156101bf57600080fd5b506004546101d3906001600160a01b031681565b6040516001600160a01b0390911681526020016100c3565b3480156101f757600080fd5b5061020b61020636600461167f565b61058b565b005b34801561021957600080fd5b5061020b6102283660046116ab565b610a0f565b34801561023957600080fd5b5061024d61024836600461167f565b610e41565b6040516100c391906116e6565b34801561026657600080fd5b506100ec60055481565b34801561027c57600080fd5b506101d361028b3660046116f4565b610ecd565b34801561029c57600080fd5b506100b6610ef7565b61020b6102b336600461167f565b611111565b60606000805b600254811015610399576000600282815481106102dd576102dd61170d565b60009182526020808320909101546001600160a01b0316808352600390915260408220909250905b8154811015610383576001600160a01b0383166000908152600160205260408120835490919084908490811061033d5761033d61170d565b6000918252602080832090910154835282019290925260400190206004015460ff16610371578461036d81611739565b9550505b8061037b81611739565b915050610305565b505050808061039190611739565b9150506102be565b508067ffffffffffffffff8111156103b3576103b3611752565b6040519080825280602002602001820160405280156103ec57816020015b6103d9611589565b8152602001906001900390816103d15790505b5091506000805b600254811015610554576000600282815481106104125761041261170d565b60009182526020808320909101546001600160a01b0316808352600390915260408220909250905b815481101561053e576001600160a01b0383166000908152600160205260408120835482908590859081106104715761047161170d565b600091825260208083209091015483528201929092526040019020600481015490915060ff1661052b576040805160e08101825282546001600160a01b03908116825260018401548116602083015260028401549282019290925260038301546060820152600483015460ff811615156080830152610100900490911660a0820152600582015460c082015288518990889081106105115761051161170d565b6020026020010181905250858061052790611739565b9650505b508061053681611739565b91505061043a565b505050808061054c90611739565b9150506103f3565b50505090565b6003602052816000526040600020818154811061057657600080fd5b90600052602060002001600091509150505481565b610593611362565b6001600160a01b0382166000908152600160209081526040808320848452909152902060038101546106055760405162461bcd60e51b8152602060048201526016602482015275105d58dd1a5bdb88191bd95cc81b9bdd08195e1a5cdd60521b60448201526064015b60405180910390fd5b806003015442101561064d5760405162461bcd60e51b8152602060048201526011602482015270105d58dd1a5bdb881b9bdd08195b991959607a1b60448201526064016105fc565b600481015460ff16156106a25760405162461bcd60e51b815260206004820152601760248201527f41756374696f6e20616c726561647920736574746c656400000000000000000060448201526064016105fc565b80546001600160a01b03163314806106c6575060018101546001600160a01b031633145b6107385760405162461bcd60e51b815260206004820152603860248201527f4f6e6c79207468652073656c6c6572206f72206869676865737420626964646560448201527f722063616e20736574746c65207468652061756374696f6e000000000000000060648201526084016105fc565b60048101805460ff1916600117905560028101541561093657600061271060055483600201546107689190611768565b610772919061177f565b9050600081836002015461078691906117a1565b6004546040519192506000916001600160a01b039091169084908381818185875af1925050503d80600081146107d8576040519150601f19603f3d011682016040523d82523d6000602084013e6107dd565b606091505b50509050806108245760405162461bcd60e51b8152602060048201526013602482015272119959481d1c985b9cd9995c8819985a5b1959606a1b60448201526064016105fc565b83546040516000916001600160a01b03169084908381818185875af1925050503d8060008114610870576040519150601f19603f3d011682016040523d82523d6000602084013e610875565b606091505b50509050806108bf5760405162461bcd60e51b815260206004820152601660248201527514d95b1b195c881d1c985b9cd9995c8819985a5b195960521b60448201526064016105fc565b60018501546040516323b872dd60e01b81523060048201526001600160a01b03918216602482015260448101889052908816906323b872dd90606401600060405180830381600087803b15801561091557600080fd5b505af1158015610929573d6000803e3d6000fd5b50505050505050506109a2565b80546040516323b872dd60e01b81523060048201526001600160a01b03918216602482015260448101849052908416906323b872dd90606401600060405180830381600087803b15801561098957600080fd5b505af115801561099d573d6000803e3d6000fd5b505050505b6109ac838361138c565b60018101546002820154604080516001600160a01b039384168152602081019290925284928616917f9af6d97b361e7a9fb2831b01b64c355a9e8ccde63002f427e48a9ac03c6a19a291015b60405180910390a350610a0b6001600055565b5050565b6001600160a01b038416600090815260016020908152604080832086845290915290206003015415610a7c5760405162461bcd60e51b815260206004820152601660248201527541756374696f6e20616c72656164792065786973747360501b60448201526064016105fc565b60008111610ad75760405162461bcd60e51b815260206004820152602260248201527f4475726174696f6e206d7573742062652067726561746572207468616e207a65604482015261726f60f01b60648201526084016105fc565b6040516331a9108f60e11b815260048101849052849033906001600160a01b03831690636352211e90602401602060405180830381865afa158015610b20573d6000803e3d6000fd5b505050506040513d601f19601f82011682018060405250810190610b4491906117b4565b6001600160a01b031614610b8e5760405162461bcd60e51b81526020600482015260116024820152702737ba103a34329027232a1037bbb732b960791b60448201526064016105fc565b6040516323b872dd60e01b8152336004820152306024820152604481018590526001600160a01b038216906323b872dd90606401600060405180830381600087803b158015610bdc57600080fd5b505af1158015610bf0573d6000803e3d6000fd5b5050505060008242610c0291906117d8565b90506040518060e00160405280336001600160a01b0316815260200160006001600160a01b03168152602001858152602001828152602001600015158152602001876001600160a01b031681526020018681525060016000886001600160a01b03166001600160a01b03168152602001908152602001600020600087815260200190815260200160002060008201518160000160006101000a8154816001600160a01b0302191690836001600160a01b0316021790555060208201518160010160006101000a8154816001600160a01b0302191690836001600160a01b03160217905550604082015181600201556060820151816003015560808201518160040160006101000a81548160ff02191690831515021790555060a08201518160040160016101000a8154816001600160a01b0302191690836001600160a01b0316021790555060c0820151816005015590505060036000876001600160a01b03166001600160a01b0316815260200190815260200160002080549050600003610dd057600280546001810182556000919091527f405787fa12a823e0f2b7631cc41b3ba8828b3321ca811111fa75cd3aa3bb5ace0180546001600160a01b0319166001600160a01b0388161790555b6001600160a01b038616600081815260036020908152604080832080546001810182559084529282902090920188905581518481529081018790528792917fbfc2001685f147773956c30c745f1b33e40df1ad4c1084b4d39c7c41bb7f6685910160405180910390a3505050505050565b610e49611589565b506001600160a01b038083166000908152600160208181526040808420868552825292839020835160e0810185528154861681529281015485169183019190915260028101549282019290925260038201546060820152600482015460ff811615156080830152610100900490921660a08301526005015460c08201525b92915050565b60028181548110610edd57600080fd5b6000918252602090912001546001600160a01b0316905081565b60606000805b600254811015610f61576003600060028381548110610f1e57610f1e61170d565b60009182526020808320909101546001600160a01b03168352820192909252604001902054610f4d90836117d8565b915080610f5981611739565b915050610efd565b508067ffffffffffffffff811115610f7b57610f7b611752565b604051908082528060200260200182016040528015610fb457816020015b610fa1611589565b815260200190600190039081610f995790505b5091506000805b60025481101561055457600060028281548110610fda57610fda61170d565b60009182526020808320909101546001600160a01b0316808352600390915260408220909250905b81548110156110fb576001600160a01b0383166000908152600160205260408120835490919084908490811061103a5761103a61170d565b600091825260208083209091015483528281019390935260409182019020815160e08101835281546001600160a01b039081168252600183015481169482019490945260028201549281019290925260038101546060830152600481015460ff811615156080840152610100900490921660a082015260059091015460c082015287518890879081106110cf576110cf61170d565b602002602001018190525084806110e590611739565b95505080806110f390611739565b915050611002565b505050808061110990611739565b915050610fbb565b611119611362565b6001600160a01b038216600090815260016020908152604080832084845290915290206003810154421061117f5760405162461bcd60e51b815260206004820152600d60248201526c105d58dd1a5bdb88195b991959609a1b60448201526064016105fc565b80546001600160a01b031633036111e75760405162461bcd60e51b815260206004820152602660248201527f53656c6c65722063616e6e6f7420626964206f6e207468656972206f776e20616044820152653ab1ba34b7b760d11b60648201526084016105fc565b806002015434116112285760405162461bcd60e51b815260206004820152600b60248201526a42696420746f6f206c6f7760a81b60448201526064016105fc565b60008160020154118015611248575060018101546001600160a01b031615155b156112ff57600181015460028201546040516001600160a01b0390921691600090839083908381818185875af1925050503d80600081146112a5576040519150601f19603f3d011682016040523d82523d6000602084013e6112aa565b606091505b50509050806112fb5760405162461bcd60e51b815260206004820181905260248201527f526566756e6420746f2070726576696f757320626964646572206661696c656460448201526064016105fc565b5050505b34600282018190556001820180546001600160a01b0319163390811790915560408051918252602082019290925283916001600160a01b038616917f0158f5674dc243762459b88cfc91b10d2d1ef9d40821cca978c2b680aa44468291016109f8565b60026000540361138557604051633ee5aeb560e01b815260040160405180910390fd5b6002600055565b6001600160a01b0382166000908152600360205260408120905b815481101561145a57828282815481106113c2576113c261170d565b90600052602060002001540361144857815482906113e2906001906117a1565b815481106113f2576113f261170d565b906000526020600020015482828154811061140f5761140f61170d565b90600052602060002001819055508180548061142d5761142d6117eb565b6001900381819060005260206000200160009055905561145a565b8061145281611739565b9150506113a6565b506001600160a01b03831660009081526003602052604081205490036115845760005b60025481101561158257836001600160a01b0316600282815481106114a4576114a461170d565b6000918252602090912001546001600160a01b03160361157057600280546114ce906001906117a1565b815481106114de576114de61170d565b600091825260209091200154600280546001600160a01b03909216918390811061150a5761150a61170d565b9060005260206000200160006101000a8154816001600160a01b0302191690836001600160a01b031602179055506002805480611549576115496117eb565b600082815260209020810160001990810180546001600160a01b0319169055019055611582565b8061157a81611739565b91505061147d565b505b505050565b6040805160e081018252600080825260208201819052918101829052606081018290526080810182905260a0810182905260c081019190915290565b60018060a01b0380825116835280602083015116602084015260408201516040840152606082015160608401526080820151151560808401528060a08301511660a08401525060c081015160c08301525050565b6020808252825182820181905260009190848201906040850190845b8181101561165b576116488385516115c5565b9284019260e09290920191600101611635565b50909695505050505050565b6001600160a01b038116811461167c57600080fd5b50565b6000806040838503121561169257600080fd5b823561169d81611667565b946020939093013593505050565b600080600080608085870312156116c157600080fd5b84356116cc81611667565b966020860135965060408601359560600135945092505050565b60e08101610ec782846115c5565b60006020828403121561170657600080fd5b5035919050565b634e487b7160e01b600052603260045260246000fd5b634e487b7160e01b600052601160045260246000fd5b60006001820161174b5761174b611723565b5060010190565b634e487b7160e01b600052604160045260246000fd5b8082028115828204841417610ec757610ec7611723565b60008261179c57634e487b7160e01b600052601260045260246000fd5b500490565b81810381811115610ec757610ec7611723565b6000602082840312156117c657600080fd5b81516117d181611667565b9392505050565b80820180821115610ec757610ec7611723565b634e487b7160e01b600052603160045260246000fdfea264697066735822122086ce8f88cd0a1eae32170457f7a44a146e30873f7620126d3af0d51670d43d7764736f6c63430008140033",
  "devdoc": {
    "errors": {
      "ReentrancyGuardReentrantCall()": [
        {
          "details": "Unauthorized reentrant call."
        }
      ]
    },
    "kind": "dev",
    "methods": {},
    "version": 1
  },
  "userdoc": {
    "kind": "user",
    "methods": {},
    "version": 1
  },
  "storageLayout": {
    "storage": [
      {
        "astId": 1584,
        "contract": "contracts/NFTAuction.sol:NFTAuction",
        "label": "_status",
        "offset": 0,
        "slot": "0",
        "type": "t_uint256"
      },
      {
        "astId": 5541,
        "contract": "contracts/NFTAuction.sol:NFTAuction",
        "label": "auctions",
        "offset": 0,
        "slot": "1",
        "type": "t_mapping(t_address,t_mapping(t_uint256,t_struct(Auction)5534_storage))"
      },
      {
        "astId": 5544,
        "contract": "contracts/NFTAuction.sol:NFTAuction",
        "label": "auctionContracts",
        "offset": 0,
        "slot": "2",
        "type": "t_array(t_address)dyn_storage"
      },
      {
        "astId": 5549,
        "contract": "contracts/NFTAuction.sol:NFTAuction",
        "label": "auctionTokenIds",
        "offset": 0,
        "slot": "3",
        "type": "t_mapping(t_address,t_array(t_uint256)dyn_storage)"
      },
      {
        "astId": 5551,
        "contract": "contracts/NFTAuction.sol:NFTAuction",
        "label": "feeRecipient",
        "offset": 0,
        "slot": "4",
        "type": "t_address"
      },
      {
        "astId": 5553,
        "contract": "contracts/NFTAuction.sol:NFTAuction",
        "label": "feePercent",
        "offset": 0,
        "slot": "5",
        "type": "t_uint256"
      }
    ],
    "types": {
      "t_address": {
        "encoding": "inplace",
        "label": "address",
        "numberOfBytes": "20"
      },
      "t_array(t_address)dyn_storage": {
        "base": "t_address",
        "encoding": "dynamic_array",
        "label": "address[]",
        "numberOfBytes": "32"
      },
      "t_array(t_uint256)dyn_storage": {
        "base": "t_uint256",
        "encoding": "dynamic_array",
        "label": "uint256[]",
        "numberOfBytes": "32"
      },
      "t_bool": {
        "encoding": "inplace",
        "label": "bool",
        "numberOfBytes": "1"
      },
      "t_mapping(t_address,t_array(t_uint256)dyn_storage)": {
        "encoding": "mapping",
        "key": "t_address",
        "label": "mapping(address => uint256[])",
        "numberOfBytes": "32",
        "value": "t_array(t_uint256)dyn_storage"
      },
      "t_mapping(t_address,t_mapping(t_uint256,t_struct(Auction)5534_storage))": {
        "encoding": "mapping",
        "key": "t_address",
        "label": "mapping(address => mapping(uint256 => struct NFTAuction.Auction))",
        "numberOfBytes": "32",
        "value": "t_mapping(t_uint256,t_struct(Auction)5534_storage)"
      },
      "t_mapping(t_uint256,t_struct(Auction)5534_storage)": {
        "encoding": "mapping",
        "key": "t_uint256",
        "label": "mapping(uint256 => struct NFTAuction.Auction)",
        "numberOfBytes": "32",
        "value": "t_struct(Auction)5534_storage"
      },
      "t_struct(Auction)5534_storage": {
        "encoding": "inplace",
        "label": "struct NFTAuction.Auction",
        "members": [
          {
            "astId": 5521,
            "contract": "contracts/NFTAuction.sol:NFTAuction",
            "label": "seller",
            "offset": 0,
            "slot": "0",
            "type": "t_address"
          },
          {
            "astId": 5523,
            "contract": "contracts/NFTAuction.sol:NFTAuction",
            "label": "highestBidder",
            "offset": 0,
            "slot": "1",
            "type": "t_address"
          },
          {
            "astId": 5525,
            "contract": "contracts/NFTAuction.sol:NFTAuction",
            "label": "highestBid",
            "offset": 0,
            "slot": "2",
            "type": "t_uint256"
          },
          {
            "astId": 5527,
            "contract": "contracts/NFTAuction.sol:NFTAuction",
            "label": "endTime",
            "offset": 0,
            "slot": "3",
            "type": "t_uint256"
          },
          {
            "astId": 5529,
            "contract": "contracts/NFTAuction.sol:NFTAuction",
            "label": "settled",
            "offset": 0,
            "slot": "4",
            "type": "t_bool"
          },
          {
            "astId": 5531,
            "contract": "contracts/NFTAuction.sol:NFTAuction",
            "label": "nftContract",
            "offset": 1,
            "slot": "4",
            "type": "t_address"
          },
          {
            "astId": 5533,
            "contract": "contracts/NFTAuction.sol:NFTAuction",
            "label": "tokenId",
            "offset": 0,
            "slot": "5",
            "type": "t_uint256"
          }
        ],
        "numberOfBytes": "192"
      },
      "t_uint256": {
        "encoding": "inplace",
        "label": "uint256",
        "numberOfBytes": "32"
      }
    }
  }
}